:020000040800F2
:10000000880602207D020008850200088702000899
:10001000890200088B0200088D0200080000000021
:100020000000000000000000000000008F02000837
:1000300091020008000000009302000895020008E9
:10004000970200089702000897020008970200082C
:10005000970200089702000897020008970200081C
:10006000970200089702000897020008970200080C
:1000700097020008970200089702000897020008FC
:10008000970200089702000855030008970200082D
:1000900097020008970200089702000897020008DC
:1000A00097020008970200089702000879030008E9
:1000B00097020008970200089702000897020008BC
:1000C00097020008970200089702000897020008AC
:1000D000970200089702000897020008970200089C
:1000E000970200089702000897020008970200088C
:1000F000ED03000897020008970200089702000825
:10010000970200089702000897020008970200086B
:10011000970200089702000897020008970200085B
:10012000970200089702000897020008970200084B
:10013000970200089702000897020008970200083B
:10014000970200089702000897020008970200082B
:10015000970200089702000897020008970200081B
:10016000970200089702000897020008970200080B
:10017000970200089702000897020008000000009C
:1001800097020008970200089702000897020008EB
:1001900097020008970200089702000897020008DB
:1001A00097020008970200089702000897020008CB
:1001B00097020008970200089702000897020008BB
:1001C000970200089702000800000000970200084C
:1001D000970200089702000897020008970200089B
:1001E000970200089702000897020008970200088B
:1001F000970200089702000800F002F800F02EF8BD
:100200000AA090E8000C82448344AAF10107DA4571
:1002100001D100F023F8AFF2090EBAE80F0013F095
:10022000010F18BFFB1A43F001031847C40F000069
:10023000D40F00000023002400250026103A28BF18
:1002400078C1FBD8520728BF30C148BF0B60704748
:100250001FB500F0FFFE1FBD10B510BD00F044F843
:100260001146FFF7F5FF00F079F900F062F803B4EA
:10027000FFF7F2FF03BC00F065F800000948804773
:1002800009480047FEE7FEE7FEE7FEE7FEE7FEE778
:10029000FEE7FEE7FEE7FEE704480549054A064B90
:1002A0007047000069030008F90100088800022077
:1002B00088060220880202208802022070477047C8
:1002C000704710B500F008F8006810BD10B504467E
:1002D00000F002F8046010BD0048704700000220E2
:1002E00000487047000002207546FFF7F9FFAE4650
:1002F00005006946534620F00700854618B020B532
:10030000FFF7CAFFBDE820404FF000064FF000079E
:100310004FF000084FF0000BAC46ACE8C009ACE869
:10032000C009ACE8C009ACE8C00921F007018D465E
:10033000704710B50446AFF300802046BDE810407A
:10034000FFF795BF01491820ABBEFEE7260002006B
:10035000704700000248034900680860704700BF0A
:100360004C220140800002200248016841F47001E3
:100370000160704788ED00E0B0B51B4840F20222F2
:10038000974D234C0168914301602968406A4A1CDB
:1003900005D08842686007DD401AA86017E0286031
:1003A000206840F0800018E0401A4FF6FF719FED82
:1003B0000C1B0844A86000EE100AB8EEC00B80EEDB
:1003C000010BBFEE001B00F02BF985ED060B4FF083
:1003D000FF302860206820F080002060B0BD00BFA2
:1003E0000000000080842E41100001400748016891
:1003F00021F0010101600648016881F003010160FC
:100400007748016981F001010161704710040140E2
:10041000140402401F484FF6FE7147F6FF42C162C6
:100420000F218162416941F001014161816941F01F
:1004300001018161816921F0FC018161016A21F082
:100440000A010162016A41F001010162016841F0A3
:1004500001010160C16841F00301C1600E490A62F7
:1004600040F2E732CA618A6842F001028A60D0F83D
:10047000002442F00102C0F80024086840F00100A6
:1004800008604FF000612A4801604FF480514160DC
:10049000704700BF000001400C0401401048114AA1
:1004A000016841F470610160D0F800141143C0F894
:1004B0000014D0F8001841F00301C0F800180A48F1
:1004C000D0F8001441F44061C0F80014016841F410
:1004D00020110160416A41F488714162704700BF98
:1004E0000000024005400010001002400F48D0F804
:1004F000001141F40031C0F80011416841F00301DE
:100500004160016841F020010160816841F40041CF
:1005100081600F21016306484FF480210160054886
:10052000016841F001110160704700BF04220140E1
:1005300000E100E000740040074840F203720168E7
:1005400041F037010160016941F0005101614169E9
:1005500011434161704700BF30380240FFF7ECFFA4
:10056000FFF758FFFFF79AFFFFF7C0FF1A486FF039
:100570007F411C4B4160052101601848016841F032
:1005800080410160164890ED060BBDEEC00B10EEE9
:10059000101AB1F5027FC1EB01321A4440F2EB139D
:1005A00092FBF3F2C8BF40F6FF721D29B8BF0022CC
:1005B00000EE102A0C4AB8EEC00ABDEEC00A10EEDA
:1005C000101A0369C160C3EB0333D360D0E903346D
:1005D00063431360F5E700BF10E000E0082201402C
:1005E000600002201D30FEFF0874004003B4019833
:1005F0004100009850EAC12018BF04204A0D18BFDE
:1006000040F0010040F2FF72B2EB515F08BF40F0D2
:100610000200012808BF052002B07047000000005A
:100620002DE9F04D2DED040B2DED0A8B9AB0DDE98F
:100630002550279CDDF890A025F0004624F00048C6
:10064000BAF1000F14BF0121002101EB4502F84966
:1006500053184A10934228D3002814BF01230023C3
:1006600003EB44030B44F3498B421ED358EA0001C9
:1006700072D0DFF8C4B35D4503D1BAF1000F05D1E4
:1006800086E0BAF1000F08BF002100D0012101EB84
:10069000450111F5001F08D8002814BF01210021D1
:1006A00001EB440111F5001F0BD99DED261B9DEDBB
:1006B000240B1AB0BDEC0A8B04B0BDE8F04D00F07D
:1006C00057BC0027002DBCBFDC49884521DADC4936
:1006D0008845A8BF02271CDAC3451ADCD94901EBBB
:1006E0002851142908DDC1F1340220FA02F101FA7F
:1006F00002F282420DD108E058B9C1F1140228FA81
:1007000002F101FA02F2424503D101F00101C1F107
:10071000020756EA0A0120D1002C1EDA002D18BF6C
:10072000022F01D0012F0AD00220FFF7CFFD1AB00F
:10073000BDEC0A8B04B0BDE8F04D00F00DBC02200A
:10074000FFF7C4FD00F008FCB1EE400B1AB0BDECA1
:100750000A8B04B0BDE8F08D1AE09FEDBB9B9FEDC6
:10076000BC8BB7EE00AB00287DD1B44880451CD1CE
:1007700005F1804010F5801008BFBAF1000F07D0D6
:10078000B34508DC002CA8BF9DED260BDEDA07E0A0
:10079000B7EE000BDAE7002CB8BF9DED260BD3DBDC
:1007A000AD48784490ED000BD0E7D84548D1002CF7
:1007B00043DA2EB186423AD1BAF1000F3DD126E09C
:1007C000BAF1000F13D00220FFF780FD00F0E0FB2C
:1007D0008DED020B9DED240B8DED000B10EE900ABC
:1007E000039961F31E0003909DED020BAEE78DEDC2
:1007F000029B9DED240B19EE901A10EE900A8DEDE0
:10080000000B61F31E0003909DED020B9EE78DED42
:10081000028B9DED240B18EE901A10EE900A8DEDD0
:10082000000B61F31E0003909DED020B8EE704DACE
:100830009DED241B8AEE010B88E79DED240B85E7D7
:1008400086421ADAB4F1804F04BF9DED240B20EEEE
:10085000000B3FF47BAFA4F10050B0F1FF500CD17E
:10086000002D0ADB00E008E09DED240B51EC100B9D
:1008700000F0B2FB41EC100B68E79DED240B51EC4E
:10088000100B00F09DFBBAF1000FCDE90E0140D135
:100890009FED730B46B3A6F1E040B0F17F600ED040
:1008A0005E4536D1002D00DA97B3022F0CBF012030
:1008B0004FF0FF3000EE100AB8EEC00B46E7002DF7
:1008C00001DD002C0DDA002D01DD002C1DDB002DDB
:1008D00014DA002C12DB012F08BF9FED630B3FF4ED
:1008E00035AFB0EE490B31E7022F18BF002D0CD009
:1008F000012F0AD1002DFFF629AF06E0002DB8BF69
:10090000002C06DA012F3FF421AFB0EE480B1DE7B3
:1009100019E0012000EBE57050EA070113D0B0EEBA
:100920004A8B791E084308BFBFEE008B5048002554
:1009300080457ADD4F495048884514DDB0420DDBD3
:10094000002C19DB2CE00120FFF7C0FC1AB0BDEC35
:100950000A8B04B0BDE8F04D00F00EBBB34502DCDD
:10096000002C09DC1CE0864202DA002C18DA03E0D5
:100970005E4528DD002C13DD0220FFF7A7FC00F008
:1009800007FB8DED020B28EE090B8DED000B10EE31
:10099000900A039961F31E0003909DED020BD5E6CA
:1009A0000220FFF793FC00F0FFFA10EE901A18EE09
:1009B000900A8DED020B8DED008B61F31E0003900C
:1009C0009DED020BC2E69DED0E0B30EE4A0B8DED58
:1009D000040B20EE002B9DED041B9FED290BB5EEC3
:1009E000003B01EE430B9DED043BB6EE001B03EE16
:1009F000401B22EE012B9DED040B9FED231B20EEEF
:100A0000011B9FED233B20EE030B9FED233B02EEEA
:100A1000430B31EE002B8DED022B02959DED022B49
:100A200032EE411B30EE411B11E139E000000000C5
:100A3000FFFF1F00FFFF0F000000F03F0000F07FEE
:100A40000000404301FCFFFF000000000000F07FB9
:100A50000000000000000000420A0000000000004A
:100A60000000000000000080000000000000F0FF17
:100A70000000E0410000F043FFFFEF3F00000000F6
:100A8000555555555555D53F000000604715F73F62
:100A900044DF5DF80BAE543EFE822B654715F73FF1
:100AA0000020B6F5801F0BDA9DED0E0B9FEDEC1BC1
:100AB00020EE010B10EE906A8DED0E0B6FF03400FE
:100AC00000EB2650C6F31301A0F2FF37E64A41F0CF
:100AD0007F6040F040509142D8BF002408DDE34AD7
:100AE0008A42C8BF012403DC0024A0F580107F1CCB
:100AF000DF49794401EBC4010F9091ED001B9DED9E
:100B00000E0B30EE410B9DED0E2B31EE023B8AEECB
:100B1000032B20EE029BD7498DED029B7944029571
:100B200091ED003B4FF0005141EA600000EB844042
:100B30008DED043B00F5002005909DED043B33EE68
:100B4000411B9DED0E3B33EE411B9DED023B9DEDA8
:100B5000044B03EE440B03EE410B20EE02BB29EEE7
:100B600009CBB0EE4C0BC4480621784400F0BAF92A
:100B70002CEE0C1B20EE010B9DED021B31EE091B30
:100B80000BEE010B9DED021B21EE011BB0EE082BBD
:100B900031EE023B33EE003B8DED043B04959DEDC1
:100BA000043B33EE422B32EE411B30EE412B9DEDE8
:100BB000020B9DED041B20EE011B9DED040B2BEEA3
:100BC000000B02EE090B31EE002B8DED022B02958E
:100BD0009DED022B32EE411B30EE411B9DED020BD1
:100BE0009FEDA72B20EE020B9DED022B9FEDA63B68
:100BF00022EE032B9FEDA63B01EE032BA648784483
:100C000000EBC40090ED001B32EE011B02EE107AE7
:100C1000B8EEC22B8DED042B30EE013B9F4878449B
:100C200000EBC40090ED002B33EE023B9DED044B36
:100C300033EE043B8DED023B02959DED023B33EE1E
:100C4000443B33EE422B32EE400B31EE401B9DED28
:100C5000260B8DED000B00959DED260B9DED002BD9
:100C600030EE420B9DED022B20EE020B9DED262B6C
:100C700002EE010B9DED001B9DED022B21EE021BF0
:100C80008DED021B30EE011B11EE900A11EE101AD1
:100C9000834A8DED001B904224DB821A11430ED152
:100CA0009FED811B30EE011B9DED002B9DED023B66
:100CB00032EE432BB4EEC21BF1EE10FA26DD022019
:100CC000FFF704FB00F064F910EE901A18EE900A9A
:100CD0008DED020B8DED008B61F31E0003909DEDF9
:100CE000020B33E5724B20F000429A420ED3714A58
:100CF000024411437FF454AE9DED022B31EE421BB2
:100D0000B4EEC01BF1EE10FABFF64AAE20F000417F
:100D1000694A6A4B002402EB21529942D8BF9DEDEB
:100D2000021B27DD511C4FF4801222FA01F101440D
:100D3000634BC1F30A527B44A2F2FF3293ED001BD6
:100D4000604B8DED041BD34021EA0303C1F3130173
:100D500041F48011C2F1140221FA02F40593002833
:100D6000B8BF64429DED021B9DED042B31EE421B8A
:100D70008DED021B30EE011B8DED041B04959DEDE6
:100D8000041B9FED512B21EE021B9DED042B9DEDCD
:100D9000023B32EE432B30EE420B9FED4D2B20EE0B
:100DA000020B9DED042B9FED4C3B02EE030B31EE4D
:100DB000002B8DED002B32EE411B30EE419B9DED63
:100DC000000B20EE000B46488DED040B0521784406
:100DD00000F088F89DED001B9DED042B02EE401BFA
:100DE0008DED021B9DED000B20EE010BB0EE002BF4
:100DF00031EE422B80EE021B9DED002BB0EE490B35
:100E000002EE090B31EE400B9DED001B30EE410B65
:100E10003AEE400B10EE900A8DED000B00EB045003
:100E200001150029C8BF019013DC224651EC100BBC
:100E300000F04FF9FFF7DAFB042808BF00F0B4F820
:100E400022469DED000B51EC100B00F042F9CDE96C
:100E500000019DED000B28EE000B77E40000000080
:100E600000000000000040438E9803007AB60B009B
:100E70006A060000C806000022060000000000000C
:100E8000000000E009C7EE3FF5015B14E02F3EBE15
:100E9000FD033ADC09C7EE3F7E0500004E05000069
:100EA0000000904000000000FE822B654715973C33
:100EB00000CC904000346F3F01FCFFFF0000E03F9A
:100EC000AE040000FFFF0F0000000000432EE63FCD
:100ED000EF39FAFE422EE63F396CA80C615C20BE69
:100EE000EE030000B0EE401B491E00EBC10292ED84
:100EF000000B31F006020DD0491E00EBC10292ED4D
:100F0000002BB0EE403BB0EE420B03EE010B31F094
:100F10000602F1D1022914D004290AD0062918BFEB
:100F2000704790ED0A2B00EE012B90ED080B02EEBE
:100F3000010B90ED062B00EE012B90ED040B02EE61
:100F4000010B90ED022B00EE012B90ED000B02EE59
:100F5000010B7047000000009FED031BB7EE002B54
:100F600082EE010B7047000000000000000000004E
:100F700030EE010B704700009FED031B81EE010B6B
:100F800070470000000000000000000000000000AA
:100F90009FED030B20EE000B7047000000000000E7
:100FA00000000000000000709FED030B20EE000B1E
:100FB000704700000000000000000000000000106A
:100FC00082B0CDE9000121F0004001909DED000BC1
:100FD00002B051EC100B704700B541EC100B2DED39
:100FE000028B83B0B1EEC08B18EE100A18EE901A87
:100FF0008DED008B002818BF0120084320F0004031
:10100000C0F17F6000F1E040C00F14D010EE101A64
:1010100010EE900A8DED000B002918BF0121084346
:1010200020F00040C0F17F6000F1E040C00F04BF3D
:101030000120FFF74BF951EC180B03B0BDEC028B0C
:1010400000BD000002494FF0000000F010B800BFE2
:101050000000F87FF1EE100A4FF6FF71C0F2C031C8
:1010600020EA010040F04070E1EE100A70470CF0F9
:101070000F03092B08BF082000F059800A2B0BD062
:10108000082B18BF704708BF1CF0400F0AD04FF064
:1010900000004FF0000170471CF0400F18BF4FF0E8
:1010A000004070471CF0100F08D000F07F4220F085
:1010B000704342EAD3014FEA4370704700F060404A
:1010C00021F07F4242EA000201F07F4040EA727064
:1010D00070474FF0FF0C4CF4E06C1CEA11531CBF3E
:1010E0009CEA030C9445C2BFDA4201EB02517047FF
:1010F000002B0DD0BCF1000F0FD001F00041002AF1
:10110000A4BF41F0E04141F07F614FF00000704723
:1011100001F000414FF00000704750EA01334FF0FA
:101120009B0C18BF4CF0806C7FF48CAF70471CF4A4
:10113000801F11D01CF4E02F03D06FEACC3149009E
:1011400070474FF04050EFF3008222F0704242EAC5
:10115000000282F3008870474FF0000070470000E3
:10116000000000000000F03F000000000000F83F19
:1011700000000000000000000000004003B8E23F53
:10118000000000000000000006D0CF43EBFD4C3E05
:10119000033333333333E33FFFAB6FDBB66DDB3FFA
:1011A0004D268F515555D53F01411DA96074D13F42
:1011B00065DBC9934A86CD3FEF4E454A287ECA3F3C
:1011C0003E5555555555C53F93BDBE166CC166BFBE
:1011D0002CDE25AF6A56113FF16BD2C541BDBBBEB7
:1011E000D0A4BE726937663E000000000000000017
:1011F00000120008000002208806000034020008E7
:040000050800027D70
:00000001FF
