:020000040800F2
:10000000700602207D0200088502000887020008B1
:10001000890200088B0200088D0200080000000021
:100020000000000000000000000000008F02000837
:1000300091020008000000009302000895020008E9
:10004000970200089702000897020008970200082C
:10005000970200089702000897020008970200081C
:10006000970200089702000897020008970200080C
:1000700097020008970200089702000897020008FC
:1000800097020008970200089702000897020008EC
:1000900097020008970200089702000897020008DC
:1000A00097020008970200089702000897020008CC
:1000B0004903000897020008970200089702000809
:1000C00097020008970200089702000897020008AC
:1000D000970200089702000897020008970200089C
:1000E000970200089702000897020008970200088C
:1000F000970200089702000897020008970200087C
:10010000970200089702000897020008970200086B
:10011000970200089702000897020008970200085B
:10012000970200089702000897020008970200084B
:10013000970200089702000897020008970200083B
:10014000970200089702000897020008970200082B
:10015000970200089702000897020008970200081B
:10016000970200089702000897020008970200080B
:10017000970200089702000897020008000000009C
:1001800097020008970200089702000897020008EB
:1001900097020008970200089702000897020008DB
:1001A00097020008970200089702000897020008CB
:1001B00097020008970200089702000897020008BB
:1001C000970200089702000800000000970200084C
:1001D000970200089702000897020008970200089B
:1001E000970200089702000897020008970200088B
:1001F000970200089702000800F002F800F02EF8BD
:100200000AA090E8000C82448344AAF10107DA4571
:1002100001D100F023F8AFF2090EBAE80F0013F095
:10022000010F18BFFB1A43F00103184750020000EA
:10023000600200000023002400250026103A28BF99
:1002400078C1FBD8520728BF30C148BF0B60704748
:100250001FB500F005F91FBD10B510BD00F031F855
:100260001146FFF7F5FF00F0C5F800F04FF803B4B2
:10027000FFF7F2FF03BC00F057F800000948804781
:1002800009480047FEE7FEE7FEE7FEE7FEE7FEE778
:10029000FEE7FEE7FEE7FEE704480549054A064B90
:1002A0007047000039030008F901000870000220BF
:1002B0007006022070020220700202207047704710
:1002C0007047754600F02CF8AE4605006946534667
:1002D00020F00700854618B020B5FFF7DDFFBDE828
:1002E00020404FF000064FF000074FF000084FF09D
:1002F000000BAC46ACE8C009ACE8C009ACE8C009EA
:10030000ACE8C00921F007018D46704710B50446DE
:10031000AFF300802046BDE81040FFF7A8BF000003
:10032000004870470000022001491820ABBEFEE7DC
:1003300026000200704700000248016841F4700185
:100340000160704788ED00E00948016821F0020172
:10035000016008490A6882F080020A603F49406AE9
:100360000A680860801A044AB2FBF0F048607047DF
:1003700010000040140402400024F4000948016801
:1003800041F002010160016841F440610160016ACD
:1003900041F001010162D0F8001441F48041C0F83D
:1003A000001470470000024010480721C1614FF05F
:1003B000FF310162C16841F00101C160416941F052
:1003C00001014161416921F002014161016841F08F
:1003D000020101604FF08040016841F001010160BD
:1003E00003484FF080510160704700BF0C0000408F
:1003F00000E100E01648174A016841F0FF01016082
:10040000016911430161FFF7B9FFFFF7CDFF124802
:100410004FF4FF72016841F0011101600F494B6810
:10042000002B09D4B3F5FF7FDABFC3EB033393FB93
:10043000F2F340F6FF7300E0002300EE103AB8EE4E
:10044000C00ABCEEC00A81ED020A8B684361E6E790
:10045000303802400100002000740040600002209B
:10046000F1EE100A4FF6FF71C0F2C03120EA010030
:1004700040F04070E1EE100A704700008C04000864
:0C0480000000022070060000340200089A
:040000050800027D70
:00000001FF
