:020000040800F2
:10000000700602207D0200088502000887020008B1
:10001000890200088B0200088D0200080000000021
:100020000000000000000000000000008F02000837
:1000300091020008000000009302000895020008E9
:10004000970200089702000897020008970200082C
:10005000970200089702000897020008970200081C
:10006000970200089702000897020008970200080C
:1000700097020008970200089702000897020008FC
:1000800097020008970200089702000897020008EC
:1000900097020008970200089702000897020008DC
:1000A00097020008970200089702000897020008CC
:1000B0004903000897020008970200089702000809
:1000C00097020008970200089702000897020008AC
:1000D000970200089702000897020008970200089C
:1000E000970200089702000897020008970200088C
:1000F000970200089702000897020008970200087C
:10010000970200089702000897020008970200086B
:10011000970200089702000897020008970200085B
:10012000970200089702000897020008970200084B
:10013000970200089702000897020008970200083B
:10014000970200089702000897020008970200082B
:10015000970200089702000897020008970200081B
:10016000970200089702000897020008970200080B
:10017000970200089702000897020008000000009C
:1001800097020008970200089702000897020008EB
:1001900097020008970200089702000897020008DB
:1001A00097020008970200089702000897020008CB
:1001B00097020008970200089702000897020008BB
:1001C000970200089702000800000000970200084C
:1001D000970200089702000897020008970200089B
:1001E000970200089702000897020008970200088B
:1001F000970200089702000800F002F800F02EF8BD
:100200000AA090E8000C82448344AAF10107DA4571
:1002100001D100F023F8AFF2090EBAE80F0013F095
:10022000010F18BFFB1A43F001031847C402000076
:10023000D40200000023002400250026103A28BF25
:1002400078C1FBD8520728BF30C148BF0B60704748
:100250001FB500F03FF91FBD10B510BD00F031F81B
:100260001146FFF7F5FF00F0D3F800F04FF803B4A4
:10027000FFF7F2FF03BC00F057F800000948804781
:1002800009480047FEE7FEE7FEE7FEE7FEE7FEE778
:10029000FEE7FEE7FEE7FEE704480549054A064B90
:1002A0007047000039030008F901000870000220BF
:1002B0007006022070020220700202207047704710
:1002C0007047754600F02CF8AE4605006946534667
:1002D00020F00700854618B020B5FFF7DDFFBDE828
:1002E00020404FF000064FF000074FF000084FF09D
:1002F000000BAC46ACE8C009ACE8C009ACE8C009EA
:10030000ACE8C00921F007018D46704710B50446DE
:10031000AFF300802046BDE81040FFF7A8BF000003
:10032000004870470000022001491820ABBEFEE7DC
:1003300026000200704700000248016841F4700185
:100340000160704788ED00E00948016821F0020172
:1003500001605D490A6882F080020A605C49406A77
:100360004A684860801A034AB2FBF0F08860704720
:10037000100000400024F4001048016841F0020120
:100380000160016841F440610160016A41F00101CE
:100390000162D0F8001441F48041C0F80014D0F894
:1003A000001441F00101C0F8001405480168016023
:1003B000C16841F00061C160704700BF00000240A9
:1003C0000014024010480721C1614FF0FF31016263
:1003D000C16841F00101C160416941F00101416121
:1003E000416921F002014161016841F002010160AF
:1003F0004FF08040016841F00101016003484FF077
:1004000080510160704700BF0C00004000E100E037
:100410002A482B4A016841F0FF010160016911433C
:100420000161FFF7A9FFFFF7CDFF2648274A284BB8
:100430004FF6FF744FF4FF75016841F00111016040
:100440002149166816F400561E601AD100269E60D7
:100450009F68002F08D4B7F5FF7FDABFC7EB0736D8
:1004600096FBF5F640F6FF7600EE106AB8EEC00A8D
:10047000BCEEC00A83ED030ADE6846610E68A6433F
:100480001AE09E68002E09D4B6F5FF7FDABFC6EBEE
:10049000063696FBF5F640F6FF7600E0002600EE05
:1004A000106AB8EEC00ABCEEC00A83ED030ADE682B
:1004B00046610E6846F001060E60C2E73038024021
:1004C0000100002000740040140402401014024097
:1004D00060000220F1EE100A4FF6FF71C0F2C03149
:1004E00020EA010040F04070E1EE100A7047000081
:1004F0000005000800000220700600003402000819
:040000050800027D70
:00000001FF
