:020000040800F2
:10000000700602207D0200088502000887020008B1
:10001000890200088B0200088D0200080000000021
:100020000000000000000000000000008F02000837
:1000300091020008000000009302000895020008E9
:10004000970200089702000897020008970200082C
:10005000970200089702000897020008970200081C
:10006000970200089702000897020008970200080C
:1000700097020008970200089702000897020008FC
:1000800097020008970200089702000897020008EC
:1000900097020008970200089702000897020008DC
:1000A00097020008970200089702000897020008CC
:1000B0009702000897020008490300089702000809
:1000C00097020008970200089702000897020008AC
:1000D000970200089702000897020008970200089C
:1000E000970200089702000897020008970200088C
:1000F000970200089702000897020008970200087C
:100100009702000897020008890300089702000878
:10011000970200089702000897020008970200085B
:10012000970200089702000897020008970200084B
:10013000970200089702000897020008970200083B
:10014000970200089702000897020008970200082B
:10015000970200089702000897020008970200081B
:10016000970200089702000897020008970200080B
:10017000970200089702000897020008000000009C
:1001800097020008970200089702000897020008EB
:1001900097020008970200089702000897020008DB
:1001A00097020008970200089702000897020008CB
:1001B00097020008970200089702000897020008BB
:1001C000970200089702000800000000970200084C
:1001D000970200089702000897020008970200089B
:1001E000970200089702000897020008970200088B
:1001F000970200089702000800F002F800F02EF8BD
:100200000AA090E8000C82448344AAF10107DA4571
:1002100001D100F023F8AFF2090EBAE80F0013F095
:10022000010F18BFFB1A43F0010318472C0300000D
:100230003C0300000023002400250026103A28BFBC
:1002400078C1FBD8520728BF30C148BF0B60704748
:100250001FB500F073F91FBD10B510BD00F031F8E7
:100260001146FFF7F5FF00F037F900F04FF803B43F
:10027000FFF7F2FF03BC00F057F800000948804781
:1002800009480047FEE7FEE7FEE7FEE7FEE7FEE778
:10029000FEE7FEE7FEE7FEE704480549054A064B90
:1002A0007047000039030008F901000870000220BF
:1002B0007006022070020220700202207047704710
:1002C0007047754600F02CF8AE4605006946534667
:1002D00020F00700854618B020B5FFF7DDFFBDE828
:1002E00020404FF000064FF000074FF000084FF09D
:1002F000000BAC46ACE8C009ACE8C009ACE8C009EA
:10030000ACE8C00921F007018D46704710B50446DE
:10031000AFF300802046BDE81040FFF7A8BF000003
:10032000004870470000022001491820ABBEFEE7DC
:1003300026000200704700000248016841F4700185
:100340000160704788ED00E00B480D4A016821F01C
:10035000010101600948016881F08001016076486F
:100360004168116090ED020A0649BDEEC00A81EDB8
:10037000000A012101607047100800401404024087
:1003800014740040340C00400248016821F001015F
:1003900001607047100C00401748194BD0F8DC136F
:1003A00041F00301C0F8DC131449D1F800241A43CA
:1003B000C1F80024134A136843F420231360536ADE
:1003C00043F0770353620A6842F2222342F0AA0202
:1003D0000A600A6842F440620A600A6A1A430A62C2
:1003E000D1F8002442F42022C1F80024016841F031
:1003F00022010160704700BF240402400000024057
:1004000000400410000C024010B51C480F2163236B
:100410004FF080421F248162C362C16841F0010134
:10042000C160416941F001014161016841F0010190
:10043000016013490A60134AD461136246F26004F2
:10044000136843F001031360936843F00103936062
:10045000D3682343D36013692343136141F211141A
:10046000536923435361D0F8002442F00102C0F8DD
:1004700000244FF48020486010BD00BF00080040F9
:1004800000E100E00C0C00400948D0F8001341F4F2
:100490000031C0F80013416841F003014160016878
:1004A0000160816841F0010181600A2101637047A8
:1004B000042001400648074A016841F0FF0101603D
:1004C000016911430161416941F4E461416170478F
:1004D000303802400C000420FFF7ECFFFFF7D4FF98
:1004E0001248016841F001110160FFF755FFFFF765
:1004F0008BFF0F48104AC16841F08B01C160016851
:1005000041F00D0101600B480021836843F08043F6
:10051000836003689B0701D40160FAE7C36C5360F2
:100520001368012BF1D11160EFE700BF00740040A8
:10053000004800400020014060000220F1EE100A57
:100540004FF6FF71C0F2C03120EA010040F0407068
:10055000E1EE100A70470000680500080000022064
:080560007006000034020008DF
:040000050800027D70
:00000001FF
