:020000040800F2
:1000000078060220850200088D0200088F02000891
:100010009102000893020008950200080000000009
:10002000000000000000000000000000970200082F
:1000300099020008000000009B0200089D020008D1
:100040009F0200089F0200089F0200089F0200080C
:100050009F0200089F0200089F0200089F020008FC
:100060009F0200089F0200089F0200089F020008EC
:100070009F0200089F0200089F0200089F020008DC
:100080009F0200089F0200089F0200089F020008CC
:100090009F0200089F0200089F0200089F020008BC
:1000A0009F0200089F0200089F0200089F020008AC
:1000B0009F0200089F020008450500089F020008F3
:1000C0009F0200089F0200089F0200089F0200088C
:1000D0009F0200089F0200089F0200089F0200087C
:1000E0009F0200089F0200089F0200089F0200086C
:1000F0009F0200089F0200089F0200089F0200085C
:100100009F0200089F020008850500089F02000862
:100110009F0200089F0200089F0200089F0200083B
:100120009F0200089F0200089F0200089F0200082B
:100130009F0200089F0200089F0200089F0200081B
:100140009F0200089F0200089F0200089F0200080B
:100150009F0200089F0200089F0200089F020008FB
:100160009F0200089F0200089F0200089F020008EB
:100170009F0200089F0200089F0200080000000084
:100180009F0200089F0200089F0200089F020008CB
:100190009F0200089F0200089F0200089F020008BB
:1001A0009F0200089F0200089F0200089F020008AB
:1001B0009F0200089F0200089F0200089F0200089B
:1001C0009F0200089F020008000000009F02000834
:1001D0009F0200089F0200089F0200089F0200087B
:1001E0009F0200089F0200089F0200089F0200086B
:1001F0009F0200089F02000800F002F800F033F8A8
:100200000AA090E8000C82448344AAF10107DA4571
:1002100001D100F028F8AFF2090EBAE80F0013F090
:10022000010F18BFFB1A43F0010318479C0500009B
:10023000AC0500000023002400250026103A28BF4A
:1002400078C1FBD8520728BF30C148BF0B60704748
:10025000642900F07F80002070471FB500F0A6FAE7
:100260001FBD10B510BD00F02AF91146FFF7F5FFCC
:1002700000F046FA00F048F903B4FFF7F2FF03BCC0
:1002800000F050F90948804709480047FEE7FEE7BB
:10029000FEE7FEE7FEE7FEE7FEE7FEE7FEE7FEE736
:1002A00004480549054A064B70470000350500081B
:1002B000F901000878000220780602207802022066
:1002C000780202200FB41CB5074B06AA7B4469468E
:1002D0000090059800F0DBF80020694600F0EAF88D
:1002E0001CBC5DF814FB0000E50100002DE9F041A5
:1002F0000E460446002020622046E168884730B35D
:10030000252805D0D4E901219047206A401CF2E756
:10031000E168204600278847050018D0A5F1410074
:10032000192802D820354FF4006732462946204666
:100330002760FFF78DFF40B1012804D0F61D26F09D
:1003400007060836D8E7361DD6E72846DAE7206ADA
:10035000BDE8F0812DE9F0410646002410687529BA
:10036000314616A510D0AFF30080002802DA4042D3
:1003700013A507E031688A0701D512A502E04907F5
:1003800004D511A5012401E0AFF3008000210A2269
:1003900006F1240709E0B0FBF2FCB0FBF2F302FB2C
:1003A0001C00303078541846491C0028F3D12346ED
:1003B0002A463046BDE8F04100F00BB800000000CE
:1003C0002D0000002B000000200000007047704747
:1003D00070472DE9F0470D4699469246044600F1D4
:1003E00024080168880604D5E06921F01001216025
:1003F00000E00120A84201DD471B00E00027A169C1
:100400007A1902EB0900081AA0612078C00602D40C
:100410002046AFF30080002608E0D4E901211AF855
:1004200006009047206A401C761C20624E45F4DB93
:100430002078C0060AD52046AFF3008006E0D4E954
:10044000012130209047206A401C2062381EA7F10D
:100450000107F4DC07E0D4E9012118F80500904712
:10046000206A401C2062281EA5F10105F3DC20460D
:10047000AFF300802078000602D50220BDE8F087A7
:100480000120FBE701694A1C02610878704700B54A
:100490008FB0CDE901310021059105497944CDE9BD
:1004A000031011466846FFF721FF0FB000BD0000A2
:1004B000E5FFFFFF0A6802F8010B0A607047754606
:1004C00000F02CF8AE4605006946534620F00700C0
:1004D000854618B020B5FFF7E3FEBDE820404FF099
:1004E00000064FF000074FF000084FF0000BAC463D
:1004F000ACE8C009ACE8C009ACE8C009ACE8C00988
:1005000021F007018D46704710B50446AFF3008017
:100510002046BDE81040FFF7AFBE0000004870471E
:100520000000022001491820ABBEFEE726000200B1
:10053000704700000248016841F470010160704793
:1005400088ED00E00B480D4A016821F001010160CF
:100550000948016881F0800101609248416811609A
:1005600090ED020A0649BDEEC00A81ED000A0121A4
:1005700001607047100800401404024014740040E9
:10058000340C00400248016821F00101016070470D
:10059000100C00401748194BD0F8DC1341F0030150
:1005A000C0F8DC131449D1F800241A43C1F8002420
:1005B000134A136843F420231360536A43F077030C
:1005C00053620A6842F2222342F0AA020A600A68D1
:1005D00042F440620A600A6A1A430A62D1F80024AF
:1005E00042F42022C1F80024016841F02201016098
:1005F000704700BF24040240000002400040041085
:10060000000C024010B51C480F2163234FF08042BC
:100610001F248162C362C16841F00101C160416968
:1006200041F001014161016841F00101016013499C
:100630000A60134AD461136246F26004136843F0FF
:1006400001031360936843F001039360D36823436D
:10065000D36013692343136141F211145369234397
:100660005361D0F8002442F00102C0F800244FF496
:100670008020486010BD00BF0008004000E100E09D
:100680000C0C004010B5044620780A2803D000F076
:1006900007F80134F8E70A20BDE81040AFF3008006
:1006A0000249C86008680006FCD570471C48004035
:1006B0000948D0F8001341F40031C0F80013416834
:1006C00041F00301416001680160816841F001016E
:1006D00081600A2101637047042001400648074AEF
:1006E000016841F0FF010160016911430161416945
:1006F00041F4E46141617047303802400C0004204D
:10070000FFF7ECFFFFF7D4FF2348016841F0011128
:100710000160FFF73FFFFFF775FF2048204E0027DD
:10072000204C0FF284084FF06409C16841F08B013E
:10073000C160016841F00D010160B06840F0804087
:10074000B0603068800701D43760FAE7F26C62600D
:10075000002A04D4B2F5805F03DD642007E00020A6
:1007600005E002FB09F0C11700EB1150001300EE89
:10077000100AB8EEC00A2068012884ED020ADCD114
:100780002546414645F80C7B2846FFF79BFD284649
:10079000FFF778FFD1E700BF007400400048004039
:1007A000002001406000022025640A00F1EE100ADA
:1007B0004FF6FF71C0F2C03120EA010040F04070F6
:1007C000E1EE100A70470000D80700080000022080
:0807D000780600003402000865
:040000050800028568
:00000001FF
