:020000040800F2
:10000000680602207D0200088502000887020008B9
:10001000890200088B0200088D0200080000000021
:100020000000000000000000000000008F02000837
:1000300091020008000000009302000895020008E9
:10004000970200089702000897020008970200082C
:10005000970200089702000897020008970200081C
:10006000970200089702000897020008970200080C
:1000700097020008970200089702000897020008FC
:1000800097020008970200089702000897020008EC
:1000900097020008970200089702000897020008DC
:1000A00097020008970200089702000897020008CC
:1000B0009702000897020008490300089702000809
:1000C00097020008970200089702000897020008AC
:1000D000970200089702000897020008970200089C
:1000E000970200089702000897020008970200088C
:1000F000970200089702000897020008970200087C
:10010000970200089702000897020008970200086B
:10011000970200089702000897020008970200085B
:10012000970200089702000897020008970200084B
:10013000970200089702000897020008970200083B
:10014000970200089702000897020008970200082B
:10015000970200089702000897020008970200081B
:10016000970200089702000897020008970200080B
:10017000970200089702000897020008000000009C
:1001800097020008970200089702000897020008EB
:1001900097020008970200089702000897020008DB
:1001A00097020008970200089702000897020008CB
:1001B00097020008970200089702000897020008BB
:1001C000970200089702000800000000970200084C
:1001D000970200089702000897020008970200089B
:1001E000970200089702000897020008970200088B
:1001F000970200089702000800F002F800F02EF8BD
:100200000AA090E8000C82448344AAF10107DA4571
:1002100001D100F023F8AFF2090EBAE80F0013F095
:10022000010F18BFFB1A43F0010318472C0200000E
:100230003C0200000023002400250026103A28BFBD
:1002400078C1FBD8520728BF30C148BF0B60704748
:100250001FB500F0F3F81FBD10B510BD00F031F868
:100260001146FFF7F5FF00F0D7F800F04FF803B4A0
:10027000FFF7F2FF03BC00F057F800000948804781
:1002800009480047FEE7FEE7FEE7FEE7FEE7FEE778
:10029000FEE7FEE7FEE7FEE704480549054A064B90
:1002A0007047000039030008F901000868000220C7
:1002B0006806022068020220680202207047704728
:1002C0007047754600F02CF8AE4605006946534667
:1002D00020F00700854618B020B5FFF7DDFFBDE828
:1002E00020404FF000064FF000074FF000084FF09D
:1002F000000BAC46ACE8C009ACE8C009ACE8C009EA
:10030000ACE8C00921F007018D46704710B50446DE
:10031000AFF300802046BDE81040FFF7A8BF000003
:10032000004870470000022001491820ABBEFEE7DC
:1003300026000200704700000248016841F4700185
:100340000160704788ED00E00748016821F0010175
:1003500001600648016881F080010160044801687D
:1003600001310160704700BF1008004014040240D2
:10037000600002201548174B01680160C16841F018
:100380000061C1601249D1F800241A43C1F8002469
:10039000114A136843F420231360536A43F0770330
:1003A00053620A6842F2222342F0AA020A600A6AF1
:1003B0001A430A62D1F8002442F42022C1F8002432
:1003C0000649425842F0220242507047000802405B
:1003D0000000024000400410000C024024FCFFFF1B
:1003E0000B480F21816240F2CF71C162C16841F0B8
:1003F0000101C160416941F001014161016841F0C1
:100400000101016003484FF080410160704700BF67
:100410000008004000E100E00648074A016841F09A
:10042000FF010160016911430161FFF7A3FFFFF7BD
:10043000D7FFFEE7303802400C000400F1EE100A4E
:100440004FF6FF71C0F2C03120EA010040F0407069
:10045000E1EE100A70470000680400080000022066
:080460006806000034020008E8
:040000050800027D70
:00000001FF
