:020000040800F2
:10000000600602207D0200088502000887020008C1
:10001000890200088B0200088D0200080000000021
:100020000000000000000000000000008F02000837
:1000300091020008000000009302000895020008E9
:10004000970200089702000897020008970200082C
:10005000970200089702000897020008970200081C
:10006000970200089702000897020008970200080C
:1000700097020008970200089702000897020008FC
:1000800097020008970200089702000897020008EC
:1000900097020008970200089702000897020008DC
:1000A00097020008970200089702000897020008CC
:1000B00097020008970200089702000897020008BC
:1000C00097020008970200089702000897020008AC
:1000D000970200089702000897020008970200089C
:1000E000970200089702000897020008970200088C
:1000F000970200089702000897020008970200087C
:1001000097020008970200084903000897020008B8
:10011000970200089702000897020008970200085B
:10012000970200089702000897020008970200084B
:10013000970200089702000897020008970200083B
:10014000970200089702000897020008970200082B
:10015000970200089702000897020008970200081B
:10016000970200089702000897020008970200080B
:10017000970200089702000897020008000000009C
:1001800097020008970200089702000897020008EB
:1001900097020008970200089702000897020008DB
:1001A00097020008970200089702000897020008CB
:1001B00097020008970200089702000897020008BB
:1001C000970200089702000800000000970200084C
:1001D000970200089702000897020008970200089B
:1001E000970200089702000897020008970200088B
:1001F000970200089702000800F002F800F02EF8BD
:100200000AA090E8000C82448344AAF10107DA4571
:1002100001D100F023F8AFF2090EBAE80F0013F095
:10022000010F18BFFB1A43F00103184778020000C2
:10023000880200000023002400250026103A28BF71
:1002400078C1FBD8520728BF30C148BF0B60704748
:100250001FB500F01AF91FBD10B510BD00F031F840
:100260001146FFF7F5FF00F009F900F04FF803B46D
:10027000FFF7F2FF03BC00F057F800000948804781
:1002800009480047FEE7FEE7FEE7FEE7FEE7FEE778
:10029000FEE7FEE7FEE7FEE704480549054A064B90
:1002A0007047000039030008F901000860000220CF
:1002B0006006022060020220600202207047704740
:1002C0007047754600F02CF8AE4605006946534667
:1002D00020F00700854618B020B5FFF7DDFFBDE828
:1002E00020404FF000064FF000074FF000084FF09D
:1002F000000BAC46ACE8C009ACE8C009ACE8C009EA
:10030000ACE8C00921F007018D46704710B50446DE
:10031000AFF300802046BDE81040FFF7A8BF000003
:10032000004870470000022001491820ABBEFEE7DC
:1003300026000200704700000248016841F4700185
:100340000160704788ED00E00548016821F0010177
:1003500001600448016881F080010160704700BFBE
:10036000100C00401404024010B52148214A234CCF
:1003700001680160C16841F00061C160D2F80014F9
:1003800041F4AA11C2F800141B49D1F800342343E8
:10039000C1F80034D2F80038C2F80038184B1C6895
:1003A00044F020541C60136843F420231360536A04
:1003B00043F0770353620A6842F2222342F0AA0212
:1003C0000A600A6A1A430A62026842F42042026022
:1003D000026A42F008420262D1F8002442F420226C
:1003E000C1F800240749425842F02202425010BD91
:1003F00000080240000C02400000024000400410CF
:100400000C14024024FCFFFF11480F2146F2600249
:10041000816240F2E731C162C16841F00101C1600F
:10042000416941F001014161816911438161C16903
:100430001143C16141F21112016A11430162016865
:1004400041F00101016003484FF4802101607047D1
:10045000000C004004E100E00648074A016841F052
:10046000FF010160016911430161416941F020010F
:1004700041617047303802400C000400FFF7ECFF88
:10048000FFF772FFFFF7C0FFFEE7F1EE100A4FF62D
:10049000FF71C0F2C03120EA010040F04070E1EE8F
:1004A000100A7047B4040008000002206006000033
:0404B000340200080A
:040000050800027D70
:00000001FF
